{
  "transactions": [
    {
      "hash": "0x8014d5bf5b3aadc8ece2cc09113f788832f8110b86f3d03e47092516bcf6cec3",
      "transactionType": "CALL",
      "contractName": null,
      "contractAddress": "0x5fbdb2315678afecb367f032d93f642f64180aa3",
      "function": "setValue(uint256)",
      "arguments": [
        "100"
      ],
      "transaction": {
        "from": "0xf39fd6e51aad88f6f4ce6ab8827279cfffb92266",
        "to": "0x5fbdb2315678afecb367f032d93f642f64180aa3",
        "gas": "0x8742",
        "value": "0x0",
        "input": "0x552410770000000000000000000000000000000000000000000000000000000000000064",
        "nonce": "0x19",
        "chainId": "0x7a69"
      },
      "additionalContracts": [],
      "isFixedGasLimit": false
    }
  ],
  "receipts": [
    {
      "status": "0x1",
      "cumulativeGasUsed": "0x61ee",
      "logs": [
        {
          "address": "0x5fbdb2315678afecb367f032d93f642f64180aa3",
          "topics": [
            "0xc53a6612a7428e1fc89cb87169d69d64eaefe94f5b45d43f80f1ad9d7065d2c8",
            "0x000000000000000000000000f39fd6e51aad88f6f4ce6ab8827279cfffb92266"
          ],
          "data": "0x0000000000000000000000000000000000000000000000000000000000000064",
          "blockHash": "0x2b92b2a841982582bd64035a85967746bf731ab6fa9806695e2e6b185ddd226e",
          "blockNumber": "0x1a",
          "blockTimestamp": "0x695cc326",
          "transactionHash": "0x8014d5bf5b3aadc8ece2cc09113f788832f8110b86f3d03e47092516bcf6cec3",
          "transactionIndex": "0x0",
          "logIndex": "0x0",
          "removed": false
        }
      ],
      "logsBloom": "0x00000000000000000000000000000000000000000000000000000000000000000000000000000000000000000000000000000000000000000000000000000000000000000000000000000000000008000000000000000000000000000000000000000040000000000000000100000000000000000000000000000000000000000000100000000000000000000000000000000000000000000000000200200000000000000000000000000000000000000000000000000000000000000000000000000040000000200000000000000000000000002000000000000000000000000000000000000000000000000000000000000000000000000000000000000000",
      "type": "0x2",
      "transactionHash": "0x8014d5bf5b3aadc8ece2cc09113f788832f8110b86f3d03e47092516bcf6cec3",
      "transactionIndex": "0x0",
      "blockHash": "0x2b92b2a841982582bd64035a85967746bf731ab6fa9806695e2e6b185ddd226e",
      "blockNumber": "0x1a",
      "gasUsed": "0x61ee",
      "effectiveGasPrice": "0x2217e4c",
      "blobGasPrice": "0x1",
      "from": "0xf39fd6e51aad88f6f4ce6ab8827279cfffb92266",
      "to": "0x5fbdb2315678afecb367f032d93f642f64180aa3",
      "contractAddress": null
    }
  ],
  "libraries": [],
  "pending": [],
  "returns": {},
  "timestamp": 1767686950,
  "chain": 31337,
  "commit": "ffe2831"
}